:020000040800F2
:1000000000500020950A00082D0A00082F0A000859
:10001000310A0008330A0008350A00080000000011
:10002000000000000000000000000000370A000887
:10003000390A0008000000003B0A00083D0A0008D9
:10004000DD0A0008DD0A0008DD0A0008DD0A0008F4
:10005000DD0A0008DD0A0008DD0A0008DD0A0008E4
:10006000DD0A0008DD0A0008DD0A0008DD0A0008D4
:10007000DD0A0008DD0A0008DD0A0008DD0A0008C4
:10008000DD0A0008DD0A0008DD0A0008DD0A0008B4
:10009000DD0A0008DD0A0008DD0A0008DD0A0008A4
:1000A000DD0A0008DD0A0008DD0A0008DD0A000894
:1000B000DD0A0008DD0A0008DD0A0008DD0A000884
:1000C000DD0A0008DD0A0008DD0A0008DD0A000874
:1000D000DD0A0008DD0A0008DD0A0008DD0A000864
:1000E000DD0A0008DD0A0008DD0A00080000000043
:1000F0000000000000000000000000000000000000
:0C01000000000000000000005FF808F1A3
:10010C0010B5054C237833B9044B13B10448AFF345
:10011C0000800123237010BD0C00002000000000A3
:10012C00280B00080C4B43B10C4810B50C49AFF32D
:10013C0000800C48036823B910BD0A48036833B922
:10014C007047094B002BF7D0BDE810401847064B01
:10015C00002BF5D0184700BF00000000280B00084A
:10016C00100000200C0000200000000010B5044618
:10017C000E4B18784FF47A73B3FBF0F30C4A1068FB
:10018C00B0FBF3F000F07EF868B90F2C01D9012018
:10019C0010BD002221464FF0FF3000F041F8034B18
:1001AC005C60002010BD012010BD00BF00000020CD
:1001BC000800002008B5074A136843F010031360C9
:1001CC00032000F01BF80020FFF7D0FF00F0D8FB55
:1001DC00002008BD00200240034A1168034B1B7825
:1001EC000B441360704700BF280000200000002063
:1001FC00014B1868704700BF28000020074AD368DD
:10020C0023F4E0631B041B0C000200F4E0601843B1
:10021C0040F0BF6040F40030D060704700ED00E06B
:10022C0030B4164BDB68C3F30223C3F10704042C70
:10023C0028BF04241D1D062D17D9033B012505FAE3
:10024C0004F4013C2140994005FA03F3013B1340AF
:10025C00194300280BDB0901C9B200F1604000F51D
:10026C00614080F8001330BC70470023E6E700F0D3
:10027C000F000901C9B2024B1954F4E700ED00E07C
:10028C0014ED00E00138B0F1807F0AD2064B5860C3
:10029C00F021064A82F823100020986007221A6089
:1002AC0070470120704700BF10E000E000ED00E057
:1002BC00042805D0054A136823F004031360704723
:1002CC00024A136843F004031360704710E000E027
:1002DC00704708B5FFF7FCFF08BD000082B0084B63
:1002EC001B68084AA2FB03235B0A00FB03F0019086
:1002FC0000BF019B5A1E0192002BF9D102B070472E
:10030C0008000020D34D621070B582B0044603681B
:10031C0013F0010F3DD0AC4B5B6803F00C03042BC6
:10032C002ED0A94B5B6803F00C03082B23D0636819
:10033C00B3F5803F51D0002B55D103F1804303F529
:10034C0004331A6822F480321A601A6822F480226C
:10035C001A606368002B60D0FFF74AFF05469A4B82
:10036C001B6813F4003F14D1FFF742FF401B6428B5
:10037C00F5D90320AFE1944B5B6813F4803FD6D0E2
:10038C00914B1B6813F4003F03D06368002B00F003
:10039C009F81236813F0020F65D08B4B5B6813F0C1
:1003AC000C0F4ED0884B5B6803F00C03082B43D02A
:1003BC002369002B79D00122844B1A60FFF718FFB8
:1003CC000546814B1B6813F0020F65D1FFF710FF38
:1003DC00401B0228F5D903207DE17B4A136843F4C6
:1003EC0080331360B5E7B3F5A02F09D0764B1A68AC
:1003FC0022F480321A601A6822F480221A60A8E76C
:10040C0003F18043A3F53C331A6842F480221A604E
:10041C001A6842F480321A609BE7FFF7E9FE054642
:10042C00694B1B6813F4003FB3D0FFF7E1FE401B90
:10043C006428F5D903204EE1634B5B6813F4803FCD
:10044C00B6D1614B1B6813F0020F04D02369012B4A
:10045C0001D001203FE15C4A136823F0F803616985
:10046C0043EAC1031360236813F0080F32D0A36969
:10047C00002B6ED00122564B1A60FFF7B9FE0546D1
:10048C00514B5B6A13F0020F21D1FFF7B1FE401BF9
:10049C000228F5D903201EE14B4A136823F0F80318
:1004AC00616943EAC1031360DDE70022474B1A6020
:1004BC00FFF79EFE0546444B1B6813F0020FD2D08B
:1004CC00FFF796FE401B0228F5D9032003E101201B
:1004DC00FFF704FF236813F0040F00F099803A4BE8
:1004EC00DB6913F0805F46D1374BDA6942F08052FA
:1004FC00DA61DB6903F080530193019B0125354BD5
:10050C001B6813F4807F38D0E368012B49D0002B93
:10051C004DD103F1804303F504331A6A22F0010232
:10052C001A621A6A22F004021A62E368002B5DD088
:10053C00FFF75EFE0646244B1B6A13F0020F66D1D2
:10054C00FFF756FE801B41F288339842F3D9032003
:10055C00C1E000221E4B1A60FFF74AFE05461A4BFB
:10056C005B6A13F0020FB5D0FFF742FE401B022866
:10057C00F5D90320AFE00025C1E7164A136843F410
:10058C0080731360FFF734FE0646124B1B6813F49E
:10059C00807FB9D1FFF72CFE801B6428F5D903208E
:1005AC0099E0094A136A43F001031362BDE7052B76
:1005BC0012D0054B1A6A22F001021A621A6A22F052
:1005CC0004021A62B1E700BF001002400000424270
:1005DC008004424200700040414B1A6A42F004020F
:1005EC001A621A6A42F001021A629EE7FFF700FED5
:1005FC0006463B4B1B6A13F0020F08D0FFF7F8FDC1
:10060C00801B41F288339842F3D9032063E0E5B9AB
:10061C00E369002B5ED0324A526802F00C02082AC1
:10062C005BD0022B17D000222E4B1A60FFF7E0FD97
:10063C0004462B4B1B6813F0007F47D0FFF7D8FD07
:10064C00001B0228F5D9032045E0254AD36923F085
:10065C008053D361DCE70022224B1A60FFF7C8FD00
:10066C0005461F4B1B6813F0007F06D0FFF7C0FD3B
:10067C00401B0228F5D903202DE0236AB3F5803FF7
:10068C001AD017494B6823F47413226A606A024328
:10069C0013434B600122134B1A60FFF7A9FD04466C
:1006AC000F4B1B6813F0007F0ED1FFF7A1FD001B51
:1006BC000228F5D903200EE0094A536823F40033CD
:1006CC00A1680B435360DCE7002004E0002002E04B
:1006DC00012000E0002002B070BD0120FBE700BF4C
:1006EC00001002406000424210B586B0154C94E8F0
:1006FC000F000DF1180E0EE90F00238AADF804302F
:10070C00114B5B6803F00C02082A18D1C3F3834227
:10071C00724412F8102C13F4803F03D10B4800FBE9
:10072C0002F00DE0084B5B68C3F34043734413F8CD
:10073C00143C074800FB02F0B0FBF3F000E0044867
:10074C0006B010BD400B00080010024000093D002F
:10075C0000127A00594B1B6803F007038B420CD232
:10076C00564A136823F007030B431360136803F016
:10077C000703994201D00120704770B5036813F04C
:10078C00020F06D04E4A536823F0F00384682343CB
:10079C0053600D460446036813F0010F52D04368B2
:1007AC00012B23D0022B28D0454A126812F0020FDD
:1007BC0000F0828042494A6822F0030213434B60E6
:1007CC00FFF716FD06466368012B1DD0022B2AD0BD
:1007DC003B4B5B6813F00C0F34D0FFF709FD801B0B
:1007EC0041F288339842F3D9032070BD344A126821
:1007FC0012F4003FDED1012070BD314A126812F0B4
:10080C00007FD7D1012070BD2D4B5B6803F00C032A
:10081C00042B17D0FFF7ECFC801B41F28833984275
:10082C00F2D9032070BD264B5B6803F00C03082B38
:10083C0008D0FFF7DDFC801B41F288339842F2D9D7
:10084C00032070BD1D4B1B6803F007039D420CD2A7
:10085C001A4A136823F007032B431360136803F041
:10086C0007039D4201D0012070BD236813F0040FD3
:10087C0006D0134A536823F4E063E1680B435360DA
:10088C00236813F0080F07D00D4A536823F4605304
:10089C00216943EAC1035360FFF726FF084B5B68ED
:1008AC00C3F30313074AD35CD840074B18600020EE
:1008BC00FFF75CFC002070BD012070BD00200240E1
:1008CC0000100240540B000808000020014B18686F
:1008DC00704700BF0800002082B0064B9A6942F0B6
:1008EC0004029A619B6903F004030193019B02B01B
:1008FC00704700BF00100240FEE7000000B591B049
:10090C000223069301230A9310230B9300230D93C8
:10091C0006A8FFF7F9FCF0B90F230193002102910F
:10092C0003910491059101A8FFF714FFB8B9FFF7E3
:10093C00CDFF0D4BA3FB00308009FFF7A3FC042077
:10094C00FFF7B6FC002211464FF0FF30FFF768FCB2
:10095C0011B05DF804FB86210448FFF7CDFF94210C
:10096C000248FFF7C9FF00BFD34D62106C0B0008A3
:10097C0008B5FFF71FFCFFF7C1FFFFF7ADFFFEE760
:10098C0000B583B0244B9A6942F001029A619A69CE
:10099C0002F001020092009ADA6942F08052DA61A8
:1009AC00DB6903F080530193019B0320FFF726FCC6
:1009BC00002211466FF00B00FFF732FC00221146AB
:1009CC006FF00A00FFF72CFC002211466FF00900B3
:1009DC00FFF726FC002211466FF00400FFF720FC05
:1009EC00002211466FF00300FFF71AFC002211469B
:1009FC006FF00100FFF714FC002211464FF0FF309E
:100A0C00FFF70EFC054A536823F0E06343F00073D4
:100A1C00536003B05DF804FB00100240000001407D
:100A2C007047FEE7FEE7FEE7FEE77047704770474A
:100A3C0008B5FFF7D1FBFFF74CFC08BD0F4B1A684C
:100A4C0042F001021A6059680D4A0A405A601A684D
:100A5C0022F0847222F480321A601A6822F4802206
:100A6C001A605A6822F4FE025A604FF41F029A6010
:100A7C004FF00062034B9A60704700BF00100240B9
:100A8C000000FFF800ED00E0002103E00B4B5B5889
:100A9C00435004310A480B4B42189A42F6D30A4A87
:100AAC0002E0002342F8043B084B9A42F9D3FFF7CB
:100ABC00C5FF00F00FF8FFF75BFF7047840B0008D1
:100ACC00000000200C0000200C0000202C00002056
:100ADC00FEE7000070B500250C4E0D4CA41BA410B5
:100AEC00A54209D100F01AF800250A4E0A4CA41BA5
:100AFC00A410A54205D170BD56F825309847013594
:100B0C00EEE756F8253098470135F2E77C0B0008E4
:100B1C007C0B00087C0B0008800B0008F8B500BFAC
:100B2C00F8BC08BC9E467047F8B500BFF8BC08BCC2
:040B3C009E4670471A
:100B400002030405060708090A0B0C0D0E0F10100E
:100B50000102000000000000000000000102030488
:100B60000607080900000000010203042E2E2F537F
:0C0B700072632F6D61696E2E630000003F
:040B7C00310100083B
:040B80000D0100085B
:0C0B8400010000001000000000A24A0464
:0400000508000A9550
:00000001FF
