:020000040800F2
:1000000000500020051000088D0F0008910F000817
:10001000950F0008990F00089D0F000800000000D0
:10002000000000000000000000000000A10F000818
:10003000A50F000800000000A90F0008AD0F000880
:100040004D1000084D1000084D1000084D1000081C
:100050004D1000084D1000084D1000084D1000080C
:100060004D1000084D1000084D1000084D100008FC
:100070004D1000084D1000084D1000084D100008EC
:100080004D1000084D1000084D1000084D100008DC
:100090004D1000084D1000084D1000084D100008CC
:1000A0004D1000084D1000084D1000084D100008BC
:1000B0004D1000084D1000084D1000084D100008AC
:1000C0004D1000084D1000084D1000084D1000089C
:1000D0004D1000084D1000084D1000084D1000088C
:1000E0004D1000084D1000084D10000800000000E1
:1000F0000000000000000000000000000000000000
:0C01000000000000000000005FF808F1A3
:10010C0010B5054C237833B9044B13B10448AFF345
:10011C0000800123237010BD0C00002000000000A3
:10012C009C100008084B10B51BB108490848AFF3E8
:10013C0000800848036803B910BD074B002BFBD0A7
:10014C00BDE81040184700BF000000001000002060
:10015C009C1000080C0000200000000010B50446A4
:10016C000E4B18784FF47A73B3FBF0F30C4A10680B
:10017C00B0FBF3F000F092F858B90F2C0BD800221A
:10018C0021464FF0FF3000F057F8044B5C60002024
:10019C0010BD012010BD012010BD00BF00000020CB
:1001AC000800002008B5074A136843F010031360D9
:1001BC00032000F02FF80020FFF7D0FF00F090FE96
:1001CC00002008BD00200240034A13680349097847
:1001DC000B441360704700BF280000200000002073
:1001EC00014B1868704700BF2800002038B5044642
:1001FC00FFF7F6FF0546B4F1FF3F02D0044B1B7826
:10020C001C44FFF7EDFF401B8442FAD838BD00BFF9
:10021C0000000020074AD36823F4E0631B041B0C86
:10022C00000200F4E060184340F0BF6040F400307E
:10023C00D060704700ED00E030B4164BDB68C3F3C0
:10024C000223C3F10704042C28BF04241D1D062D12
:10025C0001D9DD1E00E00025012303FA04F4013C62
:10026C002140A940AB40013B1A400A43002806DA62
:10027C0000F00F001201D2B2074B1A5407E0120122
:10028C00D2B200F1604000F5614080F8002330BC30
:10029C00704700BF00ED00E014ED00E00138B0F154
:1002AC00807F0AD2064B5860F021064A82F8231050
:1002BC000020986007221A6070470120704700BF29
:1002CC0010E000E000ED00E0042805D1054A1368B9
:1002DC0043F0040313607047024A136823F00403CD
:1002EC001360704710E000E0704700BF08B5FFF7DF
:1002FC00FBFF08BDF0B583B000263446D5E00122E3
:10030C00A2400B6813409A4240F0CE804D68122DEB
:10031C002DD00BD8022D27D003D85DB3012D1ED0C4
:10032C0035E0032D30D0112D1BD030E0614FBD4294
:10033C0020D008D8A7F58017BD421BD007F5803711
:10034C00BD4224D116E05C4FBD4213D007F5803777
:10035C00BD420FD0A7F58017BD4218D10AE0CE6878
:10036C0015E0CE68043612E0CE6808360FE0CE6891
:10037C000C360CE08D684DB1012D02D102610826BE
:10038C0005E04261082602E0002600E00426FF2B6F
:10039C0001D8864601E000F1040EFF2B01D8A20023
:1003AC0002E0A4F108029200DEF800700F259540DF
:1003BC0027EA050506FA02F22A43CEF800204A681D
:1003CC0012F0805F70D03D4A956945F0010595614A
:1003DC00926902F001020192019AA708BD1C384AE9
:1003EC0052F8255004F0030292004FF00F0E0EFA53
:1003FC0002FE25EA0E0E334DA8420DD005F58065A0
:10040C00A8420BD005F58065A84209D005F580659A
:10041C00A84207D1032506E0002504E0012502E0EF
:10042C00022500E0042505FA02F24EEA0202023728
:10043C00234D45F827204A6812F4803F05D005F576
:10044C0080652A681A432A6004E01F4D2A6822EA54
:10045C0003022A604A6812F4003F04D01A4D6A68FD
:10046C001A436A6004E0184D6A6822EA03026A6063
:10047C004A6812F4801F04D0134DAA681A43AA606C
:10048C0004E0114DAA6822EA0302AA604A6812F439
:10049C00001F04D00C4DEA681343EB6004E00A4DD6
:1004AC00EA6822EA0303EB6001340F2C7FF627AFD6
:1004BC0003B0F0BD0000211000003110001002400C
:1004CC000000014000080140000401400AB1016134
:1004DC00704709040161704782B0084B1B68084AD9
:1004EC00A2FB03235B0A00FB03F0019000BF019BFE
:1004FC005A1E0192002BF9D102B07047080000205F
:10050C00D34D621070B582B00446036813F0010F2E
:10051C006BD0A84B5B6803F00C03042B0AD0A54BE3
:10052C005B6803F00C03082B0DD1A24B5B6813F432
:10053C00803F08D09F4B1B6813F4003F55D0636875
:10054C00002B52D1B8E16368B3F5803F05D1994ACD
:10055C00136843F48033136026E063B903F18043DE
:10056C0003F504331A6822F480321A601A6822F4F4
:10057C0080221A6018E0B3F5A02F0CD103F1804350
:10058C00A3F53C331A6842F480221A601A6842F4CC
:10059C0080321A6008E0874B1A6822F480321A60A5
:1005AC001A6822F480221A6063687BB1FFF718FE88
:1005BC00054605E0FFF714FE401B642800F27E811F
:1005CC007C4B1B6813F4003FF4D00EE0FFF708FEE1
:1005DC00054605E0FFF704FE401B642800F270811D
:1005EC00744B1B6813F4003FF4D1236813F0020F13
:1005FC0050D0704B5B6813F00C0F0AD06D4B5B68DE
:10060C0003F00C03082B16D16A4B5B6813F4803F84
:10061C0011D1684B1B6813F0020F03D02369012B17
:10062C0040F05081634A136823F0F803616943EA90
:10063C00C10313602EE02369D3B101225E4B1A6013
:10064C00FFF7CEFD054605E0FFF7CAFD401B02286B
:10065C0000F23A81574B1B6813F0020FF4D0554A45
:10066C00136823F0F803616943EAC103136011E0D6
:10067C000022514B1A60FFF7B3FD054605E0FFF76A
:10068C00AFFD401B022800F221814A4B1B6813F07E
:10069C00020FF4D1236813F0080F29D0A369ABB172
:1006AC000122464B1A60FFF79BFD054605E0FFF75C
:1006BC0097FD401B022800F20B813E4B5B6A13F046
:1006CC00020FF4D00120FFF707FF11E000223B4B93
:1006DC001A60FFF785FD054605E0FFF781FD401B1D
:1006EC00022800F2F780334B5B6A13F0020FF4D14F
:1006FC00236813F0040F00F089802E4BDB6913F094
:10070C00805F0BD12B4BDA6942F08052DA61DB69E6
:10071C0003F080530193019B012500E00025284B39
:10072C001B6813F4807F13D1254A136843F480733C
:10073C001360FFF755FD064605E0FFF751FD801BE2
:10074C00642800F2C9801E4B1B6813F4807FF4D020
:10075C00E368012B05D1174A136A43F001031362B6
:10076C0022E063B903F1804303F504331A6A22F0E3
:10077C0001021A621A6A22F004021A6214E0052BB2
:10078C0009D10C4B1A6A42F004021A621A6A42F03E
:10079C0001021A6208E0074B1A6A22F001021A627F
:1007AC001A6A22F004021A62E368CBB1FFF718FD53
:1007BC0006460FE000100240000042428004424214
:1007CC0000700040FFF70CFD801B41F2883398420B
:1007DC0000F28480494B1B6A13F0020FF2D00FE039
:1007EC00FFF7FEFC064606E0FFF7FAFC801B41F221
:1007FC008833984274D8414B1B6A13F0020FF3D123
:10080C0025B13E4AD36923F08053D361E369002BB1
:10081C0068D03A4A526802F00C02082A64D0022BC3
:10082C0037D10022364B1A60FFF7DAFC054604E09C
:10083C00FFF7D6FC401B022858D8304B1B6813F02E
:10084C00007FF5D1236AB3F5803F06D12B494B6865
:10085C0023F40032A36813434B602848436823F405
:10086C007411236A626A13430B4343600122244BC5
:10087C001A60FFF7B5FC044604E0FFF7B1FC001B5F
:10088C00022835D81D4B1B6813F0007FF5D00020D3
:10089C0031E000221A4B1A60FFF7A2FC044604E078
:1008AC00FFF79EFC001B022824D8144B1B6813F086
:1008BC00007FF5D100201EE001201CE003201AE08F
:1008CC00032018E0012016E0032014E0032012E0BE
:1008DC00032010E003200EE003200CE003200AE0CC
:1008EC00032008E0002006E0012004E0032002E0E1
:1008FC00032000E0032002B070BD00BF00100240D6
:10090C006000424230B486B0164D02AC286869686B
:10091C00AA68EB680FC42B8AADF80430124B5B68E5
:10092C0003F00C02082A19D1C3F3834206A90A4426
:10093C0012F8100C13F4803F0CD00B4B5B68C3F314
:10094C0040430B4413F8142C084B03FB00F0B0FB92
:10095C00F2F004E0064B03FB00F000E0034806B0A5
:10096C0030BC7047B41000080010024000127A002E
:10097C0000093D0070B55C4B1B6803F007038B420C
:10098C000BD2594A136823F007030B431360136807
:10099C0003F00703994240F09780036813F0020FAD
:1009AC0006D0524C636823F0F002836813436360F3
:1009BC000D460446036813F0010F4DD04268012A1E
:1009CC0005D14A4B1B6813F4003F0DD17EE0022A7F
:1009DC0005D1464B1B6813F0007F05D178E0434BE3
:1009EC001B6813F0020F75D040494B6823F00303CA
:1009FC0013434B60FFF7F4FB06466368012B0ED1E3
:100A0C0006E0FFF7EDFB801B41F28833984263D878
:100A1C00364B5B6803F00C03042BF2D11CE0022B69
:100A2C0015D106E0FFF7DCFB801B41F288339842BE
:100A3C0054D82E4B5B6803F00C03082BF2D10BE05F
:100A4C00FFF7CEFB801B41F28833984248D8274BE6
:100A5C005B6813F00C0FF3D1234B1B6803F00703F7
:100A6C009D420AD2204A136823F007032B431360DC
:100A7C00136803F007039D4234D1236813F0040F6D
:100A8C0006D01A494B6823F4E062E36813434B60C9
:100A9C00236813F0080F07D0144A536823F46053EB
:100AAC00216943EAC1035360FFF72CFF0F4B5B68CE
:100ABC00C3F303130E4AD35CD8400E4B18600020CE
:100ACC00FFF74CFB002070BD012070BD012070BDF4
:100ADC00012070BD012070BD032070BD032070BDCE
:100AEC00032070BD012070BD0020024000100240A8
:100AFC00C810000808000020014B1868704700BFA0
:100B0C000800002038B50546084C00220146204656
:100B1C00FFF7DCFC6420FFF769FB01222946204625
:100B2C00FFF7D4FC6420FFF761FB38BD000C0140DB
:100B3C0070B50E46012201460C48FFF7C7FC002495
:100B4C0011E00B4D002231462846FFF7BFFC642014
:100B5C00FFF74CFB012231462846FFF7B7FC642017
:100B6C00FFF744FB0134312CEBDD70BD0008014074
:100B7C00000C01402DE9F04180460E46174600243A
:100B8C00254619E02DB1FAB241460D48FFF79EFCFF
:100B9C0011E00C4D002231462846FFF797FC6420EB
:100BAC00FFF724FB012231462846FFF78FFC642017
:100BBC00FFF71CFB01250134012CE3DDBDE8F081BE
:100BCC0000080140000C014038B50C4615460022C7
:100BDC0029462046FFF7CEFF012229462046FFF783
:100BEC00C9FF012229462046FFF7C4FF01222946EE
:100BFC002046FFF7BFFF012229462046FFF7BAFF28
:100C0C00002229462046FFF7B5FF00222946204640
:100C1C00FFF7B0FF012229462046FFF7ABFF012268
:100C2C0029462046FFF7A6FF012229462046FFF75A
:100C3C00A1FF012229462046FFF79CFF00222946EE
:100C4C002046FFF797FF002229462046FFF792FF28
:100C5C00012229462046FFF78DFF01222946204616
:100C6C00FFF788FF012229462046FFF783FF38BD96
:100C7C0010B584B00E4C00224FF480412046FFF793
:100C8C0025FC6420FFF7B2FA01224FF48041204684
:100C9C00FFF71CFC6420FFF7A9FA4FF48073009354
:100CAC001123019369460348FFF724FB04B010BDE0
:100CBC00000C01400008014038B50C4615460122D5
:100CCC0029462046FFF756FF002229462046FFF70B
:100CDC0051FF012229462046FFF74CFF00222946EE
:100CEC002046FFF747FF002229462046FFF742FF28
:100CFC00012229462046FFF73DFF002229462046C7
:100D0C00FFF738FF012229462046FFF733FF38BD95
:100D1C00F0B589B0364B9A6942F010029A619A6923
:100D2C0002F010020092009A9A6942F020029A6135
:100D3C009A6902F020020192019A9A6942F0080223
:100D4C009A619A6902F008020292029A9A6942F038
:100D5C0004029A619B6903F004030393039B254EE1
:100D6C0001224FF400513046FFF7B0FB224D012217
:100D7C004FF4A0412846FFF7A9FB00224FF4005185
:100D8C002846FFF7A3FB1D4F01224FF48071384614
:100D9C00FFF79CFB4FF40053049301240594069435
:100DAC000223079304A93046FFF7A4FA4FF48053AB
:100DBC0004930594002306930326079604A928465A
:100DCC00FFF798FA4FF4C0430493059406940796E2
:100DDC0004A92846FFF78EFA4FF480730493059408
:100DEC000694079604A93846FFF784FA09B0F0BDBB
:100DFC000010024000100140000C014000080140AE
:100E0C00FEE700BF00B591B0012206924FF480338B
:100E1C000793002108910A9202220D920E934FF42F
:100E2C00C0130F9306A8FFF76DFB18B19721144858
:100E3C00FFF7E6FF0F230193022102910023039396
:100E4C004FF480620492059301A8FFF793FD18B14B
:100E5C00A5210B48FFF7D4FFFFF74EFE094BA3FB70
:100E6C0000308009FFF71AFA0420FFF72DFA002250
:100E7C0011464FF0FF30FFF7DFF911B05DF804FBBE
:100E8C00E0100008D34D621008B5FFF78BF9FFF79F
:100E9C00B9FFFFF73DFF4FF480414FF48070FFF72F
:100EAC0047FE0E4C4FF480424FF480712046FFF702
:100EBC008BFE4FF480414FF48070FFF739FE4FF4F6
:100ECC0080424FF480712046FFF7F6FEFFF7D0FE0C
:100EDC004FF48040FFF716FEFAE700BF0008014010
:100EEC0000B583B0244B9A6942F001029A619A6969
:100EFC0002F001020092009ADA6942F08052DA6143
:100F0C00DB6903F080530193019B0320FFF782F907
:100F1C00002211466FF00B00FFF78EF900221146EC
:100F2C006FF00A00FFF788F9002211466FF00900F4
:100F3C00FFF782F9002211466FF00400FFF77CF9ED
:100F4C00002211466FF00300FFF776F900221146DC
:100F5C006FF00100FFF770F9002211464FF0FF30DF
:100F6C00FFF76AF9054A536823F0E06343F0007316
:100F7C00536003B05DF804FB001002400000014018
:100F8C00704700BFFEE700BFFEE700BFFEE700BFF3
:100F9C00FEE700BF704700BF704700BF704700BF3F
:100FAC0008B5FFF711F9FFF7A1F908BD0F4B1A6847
:100FBC0042F001021A6059680D4A0A405A601A68D8
:100FCC0022F0847222F480321A601A6822F4802291
:100FDC001A605A6822F4FE025A604FF41F029A609B
:100FEC004FF00062034B9A60704700BF0010024044
:100FFC000000FFF800ED00E0002103E00B4B5B5814
:10100C00435004310A480B4B42189A42F6D30A4A11
:10101C0002E0002342F8043B084B9A42F9D3FFF755
:10102C00C5FF00F00FF8FFF72FFF7047F81000080E
:10103C00000000200C0000200C0000202C000020E0
:10104C00FEE700000E4B70B51E460E4C0025E41A50
:10105C00A410A54204D056F8253098470135F8E77E
:10106C0000F016F8084B094C1E46E41AA410002593
:10107C00A54204D056F8253098470135F8E770BDE5
:10108C00F0100008F0100008F0100008F410000830
:10109C00F8B500BFF8BC08BC9E467047F8B500BF59
:0810AC00F8BC08BC9E46704729
:1010B40002030405060708090A0B0C0D0E0F101095
:1010C400010200000000000000000000010203040F
:1010D4000607080900000000010203042E2E2F5306
:0C10E40072632F6D61696E2E63000000C6
:0410F00031010008C2
:0410F4000D010008E2
:0C10F800010000001000000000A24A04EB
:0400000508001005DA
:00000001FF
