:020000040800F2
:1000000000500020950E0008550D0008570D0008FF
:10001000590D00085B0D00085D0D00080000000090
:100020000000000000000000000000005F0D00085C
:10003000610D000800000000630D0008650D000858
:10004000150F0008150F0008150F0008150F000800
:10005000150F0008150F0008150F0008150F0008F0
:10006000150F0008150F0008150F0008150F0008E0
:10007000150F0008150F0008150F0008150F0008D0
:10008000150F0008150F0008150F0008150F0008C0
:10009000150F0008150F0008150F0008150F0008B0
:1000A000150F0008150F0008150F0008150F0008A0
:1000B000150F0008150F0008150F0008150F000890
:1000C000150F0008150F0008150F0008150F000880
:1000D000150F0008150F0008150F0008150F000870
:1000E000150F0008150F0008150F0008000000008C
:1000F0000000000000000000000000000000000000
:0C01000000000000000000005FF808F1A3
:10010C0010B5054C237833B9044B13B10448AFF345
:10011C0000800123237010BD0C00002000000000A3
:10012C00600F00080C4B43B10C4810B50C49AFF3F1
:10013C0000800C48036823B910BD0A48036833B922
:10014C007047094B002BF7D0BDE810401847064B01
:10015C00002BF5D0184700BF00000000600F00080E
:10016C00100000200C0000200000000010B5044618
:10017C000E4B18784FF47A73B3FBF0F30C4A1068FB
:10018C00B0FBF3F000F092F868B90F2C01D9012004
:10019C0010BD002221464FF0FF3000F055F8034B04
:1001AC005C60002010BD012010BD00BF00000020CD
:1001BC000800002008B5074A136843F010031360C9
:1001CC00032000F02FF80020FFF7D0FF00F06CFDAB
:1001DC00002008BD00200240034A1168034B1B7825
:1001EC000B441360704700BF280000200000002063
:1001FC00014B1868704700BF2800002038B5044632
:10020C00FFF7F6FF0546B4F1FF3F02D0044B1B7815
:10021C001C44FFF7EDFF401B8442FAD838BD00BFE9
:10022C0000000020074AD36823F4E0631B041B0C76
:10023C00000200F4E060184340F0BF6040F400306E
:10024C00D060704700ED00E030B4164BDB68C3F3B0
:10025C000223C3F10704042C28BF04241D1D062D02
:10026C0017D9033B012505FA04F4013C21409940C0
:10027C0005FA03F3013B1340194300280BDB09017A
:10028C00C9B200F1604000F5614080F8001330BC49
:10029C0070470023E6E700F00F000901C9B2024BDA
:1002AC001954F4E700ED00E014ED00E00138B0F172
:1002BC00807F0AD2064B5860F021064A82F8231040
:1002CC000020986007221A6070470120704700BF19
:1002DC0010E000E000ED00E0042805D0054A1368AA
:1002EC0023F0040313607047024A136843F00403BD
:1002FC001360704710E000E0704708B5FFF7FCFF93
:10030C0008BD0000F0B583B00026344671E0002D26
:10031C0000F0A180012D00D1CE68FF2B00F2AF8040
:10032C008646FF2B00F2AE80A500DEF800200F27DA
:10033C00AF4022EA070206FA05F52A43CEF8002060
:10034C004A6812F0805F53D0634A956945F0010505
:10035C009561926902F001020192019AA508AF1C05
:10036C005E4A52F8272004F00307BF004FF00F0E2F
:10037C000EFA07FE22EA0E02DFF870E1704500F07B
:10038C0088800EF5806E704500F086800EF5806ECC
:10039C00704500F084800EF5806E704576D04FF07D
:1003AC00040E0EFA07F73A4302354C4F47F8252056
:1003BC004A6812F4803F75D0494D2A681A432A6066
:1003CC004A6812F4003F73D0454D6A681A436A605C
:1003DC004A6812F4801F71D0414DAA681A43AA6072
:1003EC004A6812F4001F6FD03D4DEA681343EB606E
:1003FC0001340F2C6ED80122A2400B6813409A4294
:10040C00F6D14D68122D30D00BD8022D2AD07FF6A4
:10041C007EAF032D2FD0112D7FF47FAFCE68043625
:10042C007BE7304FBD4216D00CD92F4FBD4212D0B6
:10043C0007F58037BD420ED0A7F58017BD427FF47B
:10044C006CAF08E0A7F58017BD4204D007F58037E4
:10045C00BD427FF462AF8D687DB1012D08D0426141
:10046C0008265AE7CE68083657E7CE680C3654E7AC
:10047C000261082651E700264FE704264DE700F1FC
:10048C00040E4EE7A4F10805AD004EE74FF0030E45
:10049C0087E74FF0000E84E74FF0010E81E74FF035
:1004AC00020E7EE70E4D2A6822EA03022A6087E7D5
:1004BC000B4D6A6822EA03026A6089E7084DAA6854
:1004CC0022EA0302AA608BE7054DEA6822EA0303DD
:1004DC00EB608DE703B0F0BD00100240000001405E
:1004EC000004014000002110000031100008014000
:1004FC0012B90904016170470161704782B0084B61
:10050C001B68084AA2FB03235B0A00FB03F0019063
:10051C0000BF019B5A1E0192002BF9D102B070470B
:10052C0008000020D34D621070B582B004460368F9
:10053C0013F0010F3DD0AC4B5B6803F00C03042BA4
:10054C002ED0A94B5B6803F00C03082B23D06368F7
:10055C00B3F5803F51D0002B55D103F1804303F507
:10056C0004331A6822F480321A601A6822F480224A
:10057C001A606368002B60D0FFF73AFE05469A4B71
:10058C001B6813F4003F14D1FFF732FE401B6428A4
:10059C00F5D90320AFE1944B5B6813F4803FD6D0C0
:1005AC00914B1B6813F4003F03D06368002B00F0E1
:1005BC009F81236813F0020F65D08B4B5B6813F09F
:1005CC000C0F4ED0884B5B6803F00C03082B43D008
:1005DC002369002B79D00122844B1A60FFF708FEA7
:1005EC000546814B1B6813F0020F65D1FFF700FE27
:1005FC00401B0228F5D903207DE17B4A136843F4A4
:10060C0080331360B5E7B3F5A02F09D0764B1A6889
:10061C0022F480321A601A6822F480221A60A8E749
:10062C0003F18043A3F53C331A6842F480221A602C
:10063C001A6842F480321A609BE7FFF7D9FD054631
:10064C00694B1B6813F4003FB3D0FFF7D1FD401B7F
:10065C006428F5D903204EE1634B5B6813F4803FAB
:10066C00B6D1614B1B6813F0020F04D02369012B28
:10067C0001D001203FE15C4A136823F0F803616963
:10068C0043EAC1031360236813F0080F32D0A36947
:10069C00002B6ED00122564B1A60FFF7A9FD0546C0
:1006AC00514B5B6A13F0020F21D1FFF7A1FD401BE8
:1006BC000228F5D903201EE14B4A136823F0F803F6
:1006CC00616943EAC1031360DDE70022474B1A60FE
:1006DC00FFF78EFD0546444B1B6813F0020FD2D07A
:1006EC00FFF786FD401B0228F5D9032003E101200A
:1006FC00FFF704FF236813F0040F00F099803A4BC6
:10070C00DB6913F0805F46D1374BDA6942F08052D7
:10071C00DA61DB6903F080530193019B0125354BB2
:10072C001B6813F4807F38D0E368012B49D0002B71
:10073C004DD103F1804303F504331A6A22F0010210
:10074C001A621A6A22F004021A62E368002B5DD066
:10075C00FFF74EFD0646244B1B6A13F0020F66D1C1
:10076C00FFF746FD801B41F288339842F3D90320F2
:10077C00C1E000221E4B1A60FFF73AFD05461A4BEA
:10078C005B6A13F0020FB5D0FFF732FD401B022855
:10079C00F5D90320AFE00025C1E7164A136843F4EE
:1007AC0080731360FFF724FD0646124B1B6813F48D
:1007BC00807FB9D1FFF71CFD801B6428F5D903207D
:1007CC0099E0094A136A43F001031362BDE7052B54
:1007DC0012D0054B1A6A22F001021A621A6A22F030
:1007EC0004021A62B1E700BF00100240000042424E
:1007FC008004424200700040414B1A6A42F00402ED
:10080C001A621A6A42F001021A629EE7FFF7F0FCC4
:10081C0006463B4B1B6A13F0020F08D0FFF7E8FCAF
:10082C00801B41F288339842F3D9032063E0E5B989
:10083C00E369002B5ED0324A526802F00C02082A9F
:10084C005BD0022B17D000222E4B1A60FFF7D0FC86
:10085C0004462B4B1B6813F0007F47D0FFF7C8FCF6
:10086C00001B0228F5D9032045E0254AD36923F063
:10087C008053D361DCE70022224B1A60FFF7B8FCEF
:10088C0005461F4B1B6813F0007F06D0FFF7B0FC2A
:10089C00401B0228F5D903202DE0236AB3F5803FD5
:1008AC001AD017494B6823F47413226A606A024306
:1008BC0013434B600122134B1A60FFF799FC04465B
:1008CC000F4B1B6813F0007F0ED1FFF791FC001B40
:1008DC000228F5D903200EE0094A536823F40033AB
:1008EC00A1680B435360DCE7002004E0002002E029
:1008FC00012000E0002002B070BD0120FBE700BF2A
:10090C00001002406000424210B586B0154C94E8CD
:10091C000F000DF1180E0EE90F00238AADF804300C
:10092C00114B5B6803F00C02082A18D1C3F3834205
:10093C00724412F8102C13F4803F03D10B4800FBC7
:10094C0002F00DE0084B5B68C3F34043734413F8AB
:10095C00143C074800FB02F0B0FBF3F000E0044845
:10096C0006B010BD780F00080010024000093D00D1
:10097C0000127A00594B1B6803F007038B420CD210
:10098C00564A136823F007030B431360136803F0F4
:10099C000703994201D00120704770B5036813F02A
:1009AC00020F06D04E4A536823F0F00384682343A9
:1009BC0053600D460446036813F0010F52D0436890
:1009CC00012B23D0022B28D0454A126812F0020FBB
:1009DC0000F0828042494A6822F0030213434B60C4
:1009EC00FFF706FC06466368012B1DD0022B2AD0AC
:1009FC003B4B5B6813F00C0F34D0FFF7F9FB801BFB
:100A0C0041F288339842F3D9032070BD344A1268FE
:100A1C0012F4003FDED1012070BD314A126812F091
:100A2C00007FD7D1012070BD2D4B5B6803F00C0308
:100A3C00042B17D0FFF7DCFB801B41F28833984264
:100A4C00F2D9032070BD264B5B6803F00C03082B16
:100A5C0008D0FFF7CDFB801B41F288339842F2D9C6
:100A6C00032070BD1D4B1B6803F007039D420CD285
:100A7C001A4A136823F007032B431360136803F01F
:100A8C0007039D4201D0012070BD236813F0040FB1
:100A9C0006D0134A536823F4E063E1680B435360B8
:100AAC00236813F0080F07D00D4A536823F46053E2
:100ABC00216943EAC1035360FFF726FF084B5B68CB
:100ACC00C3F30313074AD35CD840074B18600020CC
:100ADC00FFF74CFB002070BD012070BD00200240D0
:100AEC00001002408C0F000808000020014B186811
:100AFC00704700BF080000202DE9F04188B0394B49
:100B0C009A6942F010029A619A6902F010020092FE
:100B1C00009A9A6942F020029A619A6902F02002C6
:100B2C000192019A9A6942F008029A619A6902F05C
:100B3C0008020292029A9A6942F004029A619B6935
:100B4C0003F004030393039B274E01224FF400513F
:100B5C003046FFF7CDFC254D01224FF4A04128462D
:100B6C00FFF7C6FC00224FF400512846FFF7C0FCEB
:100B7C001F4F01224FF480713846FFF7B9FC4FF438
:100B8C00005304930124059406944FF00208CDF809
:100B9C001C8004A93046FFF7B5FB4FF48053049337
:100BAC000594002306930326079604A92846FFF70D
:100BBC00A9FB4FF4C04304930594CDF81880079615
:100BCC0004A92846FFF79EFB4FF480730493059409
:100BDC000694079604A93846FFF794FB08B0BDE8C5
:100BEC00F08100BF0010024000100140000C0140D9
:100BFC0000080140FEE7000000B591B0012206920A
:100C0C004FF480330793002108910A9202220D922F
:100C1C000E934FF4C0130F9306A8FFF785FC08BB87
:100C2C000F23019302210291002303934FF480625E
:100C3C000492059301A8FFF79DFEC0B9FFF756FF7C
:100C4C000D4BA3FB00308009FFF730FB0420FFF7AE
:100C5C0043FB002211464FF0FF30FFF7F5FA11B0BD
:100C6C005DF804FB40F20F110448FFF7C3FF40F29C
:100C7C001D110248FFF7BEFFD34D6210A40F0008F0
:100C8C0008B5FFF797FAFFF7B7FFFFF735FF00F04E
:100C9C0091F810214EF29E7000F07DF800F08AF869
:100CAC006420FFF7ABFAFEE700B583B0244B9A69DA
:100CBC0042F001029A619A6902F001020092009AD4
:100CCC00DA6942F08052DA61DB6903F080530193F8
:100CDC00019B0320FFF7A6FA002211466FF00B00D0
:100CEC00FFF7B2FA002211466FF00A00FFF7ACFAD8
:100CFC00002211466FF00900FFF7A6FA00221146F8
:100D0C006FF00400FFF7A0FA002211466FF0030009
:100D1C00FFF79AFA002211466FF00100FFF794FAE0
:100D2C00002211464FF0FF30FFF78EFA054A536848
:100D3C0023F0E06343F00073536003B05DF804FBF1
:100D4C0000100240000001407047FEE7FEE7FEE79E
:100D5C00FEE770477047704708B5FFF73DFAFFF79D
:100D6C00CCFA08BD08B501280AD000F039F800F01B
:100D7C0041F800F053F800F047F800F04FF808BDC8
:100D8C0000F024F800F036F800F048F800F03CF8D9
:100D9C0000F044F808BD70B506460D46002406E088
:100DAC0026FA04F000F00100FFF7DCFF0134AC423E
:100DBC00F6DB70BD10B500F009F8002402E000F07D
:100DCC0032F80134352CFADD10BD000008B50122D3
:100DDC004FF480710148FFF78BFB08BD0008014000
:100DEC0008B500224FF480710148FFF781FB08BD64
:100DFC000008014008B501224FF480410148FFF77B
:100E0C0077FB08BD000C014008B500224FF480416F
:100E1C000148FFF76DFB08BD000C014008B56420CC
:100E2C00FFF7ECF908BD08B5FFF7E4FFFFF7F6FF95
:100E3C00FFF7EAFFFFF7F2FF08BD00000F4B1A683F
:100E4C0042F001021A6059680D4A0A405A601A6849
:100E5C0022F0847222F480321A601A6822F4802202
:100E6C001A605A6822F4FE025A604FF41F029A600C
:100E7C004FF00062034B9A60704700BF00100240B5
:100E8C000000FFF800ED00E0002103E0194B5B5877
:100E9C00435004311848194B42189A42F6D3184A59
:100EAC0002E0002342F8043B164B9A42F9D3FFF7B9
:100EBC00C5FF00F02BF8FFF7E3FE70474FF0010081
:100ECC004FF001014FF000024FF001034FF000040E
:100EDC004FF001054FF001064FF001074FF00008ED
:100EEC004FF000094FF0010A4FF0010B4FF0000CCE
:100EFC0000F00AB8BC0F0008000000200C00002015
:100F0C000C0000202C000020FEE7000070B500252E
:100F1C000C4E0D4CA41BA410A54209D100F01AF8DC
:100F2C0000250A4E0A4CA41BA410A54205D170BD85
:100F3C0056F8253098470135EEE756F82530984796
:100F4C000135F2E7B40F0008B40F0008B40F000825
:100F5C00B80F0008F8B500BFF8BC08BC9E46704737
:0C0F6C00F8B500BFF8BC08BC9E467047FA
:100F780002030405060708090A0B0C0D0E0F1010D2
:100F8800010200000000000000000000010203044C
:100F98000607080900000000010203042E2E2F5343
:0C0FA80072632F6D61696E2E6300000003
:040FB40031010008FF
:040FB8000D0100081F
:0C0FBC00010000001000000000A24A0428
:0400000508000E954C
:00000001FF
